:100000000C9434000C943E000C943E000C943E0082
:100010000C943E000C943E000C943E000C943E0068
:100020000C943E000C948A000C943E000C943E000C
:100030000C943E000C943E000C943E000C943E0048
:100040000C9469000C943E000C943E000C943E000D
:100050000C943E000C943E000C943E000C943E0028
:100060000C943E000C943E0011241FBECFEFD8E04C
:10007000DEBFCDBF0E9440000C94AC000C94000089
:1000800014B8389A84B5836084BD569A84B5806864
:1000900084BDEEE6F0E080818160808317BC85B589
:1000A000826085BDE0EBF0E0808189608083239AE7
:1000B000808180688083E0E7F0E0808181608083D8
:1000C0001092B300E1EBF0E080818260808378944D
:1000D000FFCF1F920F920FB60F9211242F933F93D1
:1000E0008F939F9323B136B1832F817090E0880F57
:1000F000991F880F991F880F991F922F977F892B1F
:1001000087BD9F918F913F912F910F900FBE0F90C0
:100110001F9018951F920F920FB60F9211242F93D4
:100120003F938F939F9323B136B1832F817090E0DB
:10013000880F991F880F991F880F991F922F977FFB
:10014000892B8093B3009F918F913F912F910F90B6
:0C0150000FBE0F901F901895F894FFCF81
:00000001FF
